{
  "contractName": "SmartContract",
  "abi": [
    {
      "constant": false,
      "inputs": [
        {
          "internalType": "uint256",
          "name": "productId",
          "type": "uint256"
        },
        {
          "internalType": "uint256",
          "name": "processId",
          "type": "uint256"
        }
      ],
      "name": "addProcessToProduct",
      "outputs": [],
      "payable": false,
      "stateMutability": "nonpayable",
      "type": "function"
    },
    {
      "constant": false,
      "inputs": [
        {
          "internalType": "uint256",
          "name": "productId",
          "type": "uint256"
        },
        {
          "internalType": "uint256",
          "name": "processId",
          "type": "uint256"
        },
        {
          "internalType": "uint256",
          "name": "index",
          "type": "uint256"
        }
      ],
      "name": "addProcessToProductAtIndex",
      "outputs": [],
      "payable": false,
      "stateMutability": "nonpayable",
      "type": "function"
    },
    {
      "constant": false,
      "inputs": [
        {
          "internalType": "uint256",
          "name": "productId",
          "type": "uint256"
        },
        {
          "internalType": "uint256",
          "name": "index",
          "type": "uint256"
        }
      ],
      "name": "removeProcessFromProduct",
      "outputs": [],
      "payable": false,
      "stateMutability": "nonpayable",
      "type": "function"
    },
    {
      "constant": true,
      "inputs": [
        {
          "internalType": "uint256",
          "name": "productId",
          "type": "uint256"
        }
      ],
      "name": "getProcessOfProducts",
      "outputs": [
        {
          "internalType": "uint256[]",
          "name": "",
          "type": "uint256[]"
        }
      ],
      "payable": false,
      "stateMutability": "view",
      "type": "function"
    },
    {
      "constant": false,
      "inputs": [
        {
          "internalType": "string",
          "name": "productName",
          "type": "string"
        },
        {
          "internalType": "string",
          "name": "productDescription",
          "type": "string"
        },
        {
          "internalType": "uint256",
          "name": "maxTemprature",
          "type": "uint256"
        }
      ],
      "name": "addProduct",
      "outputs": [
        {
          "internalType": "uint256",
          "name": "",
          "type": "uint256"
        }
      ],
      "payable": false,
      "stateMutability": "nonpayable",
      "type": "function"
    },
    {
      "constant": false,
      "inputs": [
        {
          "internalType": "uint256",
          "name": "productId",
          "type": "uint256"
        },
        {
          "internalType": "string",
          "name": "productName",
          "type": "string"
        }
      ],
      "name": "updateProductName",
      "outputs": [],
      "payable": false,
      "stateMutability": "nonpayable",
      "type": "function"
    },
    {
      "constant": false,
      "inputs": [
        {
          "internalType": "uint256",
          "name": "productId",
          "type": "uint256"
        },
        {
          "internalType": "string",
          "name": "productDescription",
          "type": "string"
        }
      ],
      "name": "updateProductDescription",
      "outputs": [],
      "payable": false,
      "stateMutability": "nonpayable",
      "type": "function"
    },
    {
      "constant": true,
      "inputs": [],
      "name": "getNumberOfProducts",
      "outputs": [
        {
          "internalType": "uint256",
          "name": "",
          "type": "uint256"
        }
      ],
      "payable": false,
      "stateMutability": "view",
      "type": "function"
    },
    {
      "constant": false,
      "inputs": [
        {
          "internalType": "uint256",
          "name": "productId",
          "type": "uint256"
        },
        {
          "internalType": "uint256",
          "name": "maxTemprature",
          "type": "uint256"
        }
      ],
      "name": "updateProductMaxTemprature",
      "outputs": [],
      "payable": false,
      "stateMutability": "nonpayable",
      "type": "function"
    },
    {
      "constant": true,
      "inputs": [],
      "name": "getProductDetails",
      "outputs": [
        {
          "components": [
            {
              "internalType": "uint256",
              "name": "productId",
              "type": "uint256"
            },
            {
              "internalType": "string",
              "name": "productName",
              "type": "string"
            },
            {
              "internalType": "string",
              "name": "productDescription",
              "type": "string"
            },
            {
              "internalType": "uint256",
              "name": "maxTemprature",
              "type": "uint256"
            }
          ],
          "internalType": "struct SmartContract.Product[]",
          "name": "",
          "type": "tuple[]"
        }
      ],
      "payable": false,
      "stateMutability": "view",
      "type": "function"
    },
    {
      "constant": true,
      "inputs": [
        {
          "internalType": "uint256",
          "name": "productId",
          "type": "uint256"
        }
      ],
      "name": "getProductDetailsById",
      "outputs": [
        {
          "components": [
            {
              "internalType": "uint256",
              "name": "productId",
              "type": "uint256"
            },
            {
              "internalType": "string",
              "name": "productName",
              "type": "string"
            },
            {
              "internalType": "string",
              "name": "productDescription",
              "type": "string"
            },
            {
              "internalType": "uint256",
              "name": "maxTemprature",
              "type": "uint256"
            }
          ],
          "internalType": "struct SmartContract.Product",
          "name": "",
          "type": "tuple"
        }
      ],
      "payable": false,
      "stateMutability": "view",
      "type": "function"
    },
    {
      "constant": false,
      "inputs": [
        {
          "internalType": "string",
          "name": "processName",
          "type": "string"
        },
        {
          "internalType": "string",
          "name": "processDescription",
          "type": "string"
        }
      ],
      "name": "addProcess",
      "outputs": [
        {
          "internalType": "uint256",
          "name": "",
          "type": "uint256"
        }
      ],
      "payable": false,
      "stateMutability": "nonpayable",
      "type": "function"
    },
    {
      "constant": false,
      "inputs": [
        {
          "internalType": "uint256",
          "name": "processId",
          "type": "uint256"
        },
        {
          "internalType": "string",
          "name": "processName",
          "type": "string"
        }
      ],
      "name": "updateProcessName",
      "outputs": [],
      "payable": false,
      "stateMutability": "nonpayable",
      "type": "function"
    },
    {
      "constant": false,
      "inputs": [
        {
          "internalType": "uint256",
          "name": "processId",
          "type": "uint256"
        },
        {
          "internalType": "string",
          "name": "processDescription",
          "type": "string"
        }
      ],
      "name": "updateProcessDescription",
      "outputs": [],
      "payable": false,
      "stateMutability": "nonpayable",
      "type": "function"
    },
    {
      "constant": true,
      "inputs": [],
      "name": "getNumberOfProcesses",
      "outputs": [
        {
          "internalType": "uint256",
          "name": "",
          "type": "uint256"
        }
      ],
      "payable": false,
      "stateMutability": "view",
      "type": "function"
    },
    {
      "constant": true,
      "inputs": [],
      "name": "getProcessDetails",
      "outputs": [
        {
          "components": [
            {
              "internalType": "uint256",
              "name": "processId",
              "type": "uint256"
            },
            {
              "internalType": "string",
              "name": "processName",
              "type": "string"
            },
            {
              "internalType": "string",
              "name": "processDescription",
              "type": "string"
            }
          ],
          "internalType": "struct SmartContract.Process[]",
          "name": "",
          "type": "tuple[]"
        }
      ],
      "payable": false,
      "stateMutability": "view",
      "type": "function"
    },
    {
      "constant": true,
      "inputs": [
        {
          "internalType": "uint256",
          "name": "processId",
          "type": "uint256"
        }
      ],
      "name": "getProcessDetailsById",
      "outputs": [
        {
          "components": [
            {
              "internalType": "uint256",
              "name": "processId",
              "type": "uint256"
            },
            {
              "internalType": "string",
              "name": "processName",
              "type": "string"
            },
            {
              "internalType": "string",
              "name": "processDescription",
              "type": "string"
            }
          ],
          "internalType": "struct SmartContract.Process",
          "name": "",
          "type": "tuple"
        }
      ],
      "payable": false,
      "stateMutability": "view",
      "type": "function"
    },
    {
      "constant": false,
      "inputs": [],
      "name": "addRefrigerator",
      "outputs": [
        {
          "internalType": "uint256",
          "name": "",
          "type": "uint256"
        }
      ],
      "payable": false,
      "stateMutability": "nonpayable",
      "type": "function"
    },
    {
      "constant": false,
      "inputs": [
        {
          "internalType": "uint256",
          "name": "refrigeratorId",
          "type": "uint256"
        },
        {
          "internalType": "uint256",
          "name": "itemId",
          "type": "uint256"
        }
      ],
      "name": "addItemInRefrigerator",
      "outputs": [],
      "payable": false,
      "stateMutability": "nonpayable",
      "type": "function"
    },
    {
      "constant": false,
      "inputs": [
        {
          "internalType": "uint256",
          "name": "refrigeratorId",
          "type": "uint256"
        },
        {
          "internalType": "uint256",
          "name": "itemId",
          "type": "uint256"
        }
      ],
      "name": "remmoveItemFromRefrigerator",
      "outputs": [],
      "payable": false,
      "stateMutability": "nonpayable",
      "type": "function"
    },
    {
      "constant": false,
      "inputs": [
        {
          "internalType": "uint256",
          "name": "refrigeratorId",
          "type": "uint256"
        },
        {
          "internalType": "uint256",
          "name": "temprature",
          "type": "uint256"
        }
      ],
      "name": "addTemprature",
      "outputs": [],
      "payable": false,
      "stateMutability": "nonpayable",
      "type": "function"
    },
    {
      "constant": false,
      "inputs": [
        {
          "internalType": "string",
          "name": "employeeName",
          "type": "string"
        },
        {
          "internalType": "uint256",
          "name": "contactNumber",
          "type": "uint256"
        },
        {
          "internalType": "uint256",
          "name": "numberOfDose",
          "type": "uint256"
        },
        {
          "internalType": "string",
          "name": "vaccineName",
          "type": "string"
        }
      ],
      "name": "addEmployee",
      "outputs": [
        {
          "internalType": "uint256",
          "name": "",
          "type": "uint256"
        }
      ],
      "payable": false,
      "stateMutability": "nonpayable",
      "type": "function"
    },
    {
      "constant": false,
      "inputs": [
        {
          "internalType": "string",
          "name": "employeeName",
          "type": "string"
        },
        {
          "internalType": "uint256",
          "name": "contactNumber",
          "type": "uint256"
        }
      ],
      "name": "addEmployee",
      "outputs": [
        {
          "internalType": "uint256",
          "name": "",
          "type": "uint256"
        }
      ],
      "payable": false,
      "stateMutability": "nonpayable",
      "type": "function"
    },
    {
      "constant": false,
      "inputs": [
        {
          "internalType": "string",
          "name": "retailerName",
          "type": "string"
        },
        {
          "internalType": "string",
          "name": "retailerAddress",
          "type": "string"
        }
      ],
      "name": "addRetailer",
      "outputs": [
        {
          "internalType": "uint256",
          "name": "",
          "type": "uint256"
        }
      ],
      "payable": false,
      "stateMutability": "nonpayable",
      "type": "function"
    },
    {
      "constant": true,
      "inputs": [],
      "name": "getAmountOfProductsToProduce",
      "outputs": [
        {
          "internalType": "uint256[]",
          "name": "",
          "type": "uint256[]"
        }
      ],
      "payable": false,
      "stateMutability": "view",
      "type": "function"
    },
    {
      "constant": true,
      "inputs": [
        {
          "internalType": "uint256",
          "name": "productId",
          "type": "uint256"
        }
      ],
      "name": "getAmountOfProductToProduce",
      "outputs": [
        {
          "internalType": "uint256",
          "name": "",
          "type": "uint256"
        }
      ],
      "payable": false,
      "stateMutability": "view",
      "type": "function"
    },
    {
      "constant": false,
      "inputs": [
        {
          "internalType": "uint256",
          "name": "retailerId",
          "type": "uint256"
        },
        {
          "internalType": "uint256[]",
          "name": "productAmount",
          "type": "uint256[]"
        }
      ],
      "name": "placeOrder",
      "outputs": [
        {
          "internalType": "uint256",
          "name": "",
          "type": "uint256"
        }
      ],
      "payable": false,
      "stateMutability": "nonpayable",
      "type": "function"
    },
    {
      "constant": true,
      "inputs": [
        {
          "internalType": "uint256",
          "name": "orderId",
          "type": "uint256"
        }
      ],
      "name": "getOrderDetails",
      "outputs": [
        {
          "components": [
            {
              "internalType": "uint256",
              "name": "orderId",
              "type": "uint256"
            },
            {
              "internalType": "uint256",
              "name": "retailerId",
              "type": "uint256"
            },
            {
              "internalType": "uint256[]",
              "name": "productAmount",
              "type": "uint256[]"
            },
            {
              "internalType": "bool",
              "name": "isDelivered",
              "type": "bool"
            }
          ],
          "internalType": "struct SmartContract.ReturnOrder",
          "name": "",
          "type": "tuple"
        }
      ],
      "payable": false,
      "stateMutability": "view",
      "type": "function"
    },
    {
      "constant": false,
      "inputs": [
        {
          "internalType": "uint256",
          "name": "orderId",
          "type": "uint256"
        },
        {
          "internalType": "uint256[]",
          "name": "productAmount",
          "type": "uint256[]"
        }
      ],
      "name": "updateOrderDetails",
      "outputs": [],
      "payable": false,
      "stateMutability": "nonpayable",
      "type": "function"
    },
    {
      "constant": false,
      "inputs": [
        {
          "internalType": "uint256",
          "name": "milkAmount",
          "type": "uint256"
        },
        {
          "internalType": "uint256",
          "name": "timestamp",
          "type": "uint256"
        }
      ],
      "name": "addMilk",
      "outputs": [
        {
          "internalType": "uint256",
          "name": "",
          "type": "uint256"
        }
      ],
      "payable": false,
      "stateMutability": "nonpayable",
      "type": "function"
    },
    {
      "constant": false,
      "inputs": [
        {
          "internalType": "uint256",
          "name": "milkId",
          "type": "uint256"
        },
        {
          "internalType": "uint256",
          "name": "milkAmount",
          "type": "uint256"
        }
      ],
      "name": "reduceMilk",
      "outputs": [],
      "payable": false,
      "stateMutability": "nonpayable",
      "type": "function"
    },
    {
      "constant": true,
      "inputs": [],
      "name": "getAmountOfMilks",
      "outputs": [
        {
          "components": [
            {
              "internalType": "uint256",
              "name": "milkId",
              "type": "uint256"
            },
            {
              "internalType": "uint256",
              "name": "milkAmount",
              "type": "uint256"
            },
            {
              "internalType": "uint256",
              "name": "timestamp",
              "type": "uint256"
            }
          ],
          "internalType": "struct SmartContract.Milk[]",
          "name": "",
          "type": "tuple[]"
        }
      ],
      "payable": false,
      "stateMutability": "view",
      "type": "function"
    },
    {
      "constant": false,
      "inputs": [
        {
          "internalType": "uint256",
          "name": "productId",
          "type": "uint256"
        }
      ],
      "name": "addItem",
      "outputs": [
        {
          "internalType": "uint256",
          "name": "",
          "type": "uint256"
        }
      ],
      "payable": false,
      "stateMutability": "nonpayable",
      "type": "function"
    },
    {
      "constant": false,
      "inputs": [
        {
          "internalType": "uint256",
          "name": "itemId",
          "type": "uint256"
        },
        {
          "internalType": "uint256",
          "name": "employeeId",
          "type": "uint256"
        }
      ],
      "name": "addEmployeeToItem",
      "outputs": [],
      "payable": false,
      "stateMutability": "nonpayable",
      "type": "function"
    },
    {
      "constant": false,
      "inputs": [
        {
          "internalType": "uint256",
          "name": "itemId",
          "type": "uint256"
        },
        {
          "internalType": "uint256",
          "name": "processId",
          "type": "uint256"
        },
        {
          "internalType": "uint256",
          "name": "timestamp",
          "type": "uint256"
        }
      ],
      "name": "addProcessToItem",
      "outputs": [],
      "payable": false,
      "stateMutability": "nonpayable",
      "type": "function"
    },
    {
      "constant": true,
      "inputs": [
        {
          "internalType": "uint256",
          "name": "itemId",
          "type": "uint256"
        }
      ],
      "name": "getItemDetails",
      "outputs": [
        {
          "components": [
            {
              "internalType": "uint256",
              "name": "itemId",
              "type": "uint256"
            },
            {
              "internalType": "uint256",
              "name": "productId",
              "type": "uint256"
            },
            {
              "internalType": "uint256[]",
              "name": "processTimestamp",
              "type": "uint256[]"
            },
            {
              "internalType": "bool[]",
              "name": "employeeWorked",
              "type": "bool[]"
            },
            {
              "internalType": "bool",
              "name": "isUsable",
              "type": "bool"
            }
          ],
          "internalType": "struct SmartContract.ReturnItem",
          "name": "",
          "type": "tuple"
        }
      ],
      "payable": false,
      "stateMutability": "view",
      "type": "function"
    },
    {
      "constant": true,
      "inputs": [],
      "name": "getNumberOfItems",
      "outputs": [
        {
          "internalType": "uint256",
          "name": "",
          "type": "uint256"
        }
      ],
      "payable": false,
      "stateMutability": "view",
      "type": "function"
    }
  ],
  "bytecode": "0x6080604052600060015560006003556000600555600060075560006009556000600c556000600e55600060105534801561003857600080fd5b50612ff4806100486000396000f3fe608060405234801561001057600080fd5b50600436106102275760003560e01c8063817d9e1311610130578063c32d3f0a116100b8578063ddc5d6451161007c578063ddc5d64514610684578063ec7dd7bb146106b4578063f28ea1c1146106e4578063f3ee4c5914610714578063ffa4204b1461073057610227565b8063c32d3f0a146105ce578063c5c1b3b5146105ea578063c8df6a5d1461061a578063d4d350631461064a578063dae568fb1461066657610227565b8063ac876e9d116100ff578063ac876e9d146104f2578063ad08650b14610522578063b61622bf1461053e578063be6340451461056e578063c0ce26d61461059e57610227565b8063817d9e131461048057806395bef5181461049c5780639e3eb1f6146104ba578063a26edf6c146104d657610227565b80633cbeb84b116101b35780636307be2c116101825780636307be2c146103c65780637078860e146103e457806373004ca014610414578063730ef269146104445780637325ba771461046257610227565b80633cbeb84b1461032c5780633ffd81fb1461035c578063486e19b01461037a5780635ba0cf63146103aa57610227565b80631dcca1ad116101fa5780631dcca1ad1461029e57806321a9d6b7146102ba57806323bc839b146102d657806326af03e2146102f45780632bb6b1b51461031057610227565b80630e1301c41461022c5780630f3a2c651461024a578063176e740c146102665780631aa95fe314610282575b600080fd5b610234610760565b6040516102419190612c79565b60405180910390f35b610264600480360361025f91908101906125ac565b6107e6565b005b610280600480360361027b91908101906125ac565b61084d565b005b61029c60048036036102979190810190612558565b61095a565b005b6102b860048036036102b391908101906125ac565b610989565b005b6102d460048036036102cf9190810190612504565b610a34565b005b6102de610ab8565b6040516102eb9190612c57565b60405180910390f35b61030e60048036036103099190810190612558565b610caa565b005b61032a600480360361032591908101906125ac565b610cd9565b005b61034660048036036103419190810190612504565b610d1d565b6040516103539190612d23565b60405180910390f35b610364610e52565b6040516103719190612d23565b60405180910390f35b610394600480360361038f91908101906124db565b610e5c565b6040516103a19190612c9b565b60405180910390f35b6103c460048036036103bf91908101906125ac565b610fd7565b005b6103ce6110bd565b6040516103db9190612c35565b60405180910390f35b6103fe60048036036103f99190810190612309565b6112a5565b60405161040b9190612d23565b60405180910390f35b61042e600480360361042991908101906124db565b611339565b60405161043b9190612cdf565b60405180910390f35b61044c6114f6565b6040516104599190612d23565b60405180910390f35b61046a611500565b6040516104779190612c13565b60405180910390f35b61049a600480360361049591908101906125ac565b6115b8565b005b6104a46115d7565b6040516104b19190612d23565b60405180910390f35b6104d460048036036104cf91908101906125ac565b6115e1565b005b6104f060048036036104eb91908101906125ac565b611635565b005b61050c60048036036105079190810190612448565b61165d565b6040516105199190612d23565b60405180910390f35b61053c600480360361053791908101906125e8565b61173c565b005b610558600480360361055391908101906124db565b611813565b6040516105659190612c79565b60405180910390f35b610588600480360361058391908101906124db565b6118d4565b6040516105959190612d23565b60405180910390f35b6105b860048036036105b39190810190612309565b61197d565b6040516105c59190612d23565b60405180910390f35b6105e860048036036105e391908101906125e8565b611a11565b005b61060460048036036105ff91908101906125ac565b611a42565b6040516106119190612d23565b60405180910390f35b610634600480360361062f91908101906124db565b611ab0565b6040516106419190612cbd565b60405180910390f35b610664600480360361065f9190810190612558565b611c35565b005b61066e611c64565b60405161067b9190612d23565b60405180910390f35b61069e600480360361069991908101906124db565b611cb9565b6040516106ab9190612d23565b60405180910390f35b6106ce60048036036106c991908101906124db565b611cd6565b6040516106db9190612d01565b60405180910390f35b6106fe60048036036106f99190810190612375565b611de6565b60405161070b9190612d23565b60405180910390f35b61072e60048036036107299190810190612558565b611ea8565b005b61074a600480360361074591908101906123f4565b611ed7565b6040516107579190612d23565b60405180910390f35b6060806001546040519080825280602002602001820160405280156107945781602001602082028038833980820191505090505b50905060008090505b6001548110156107de57600b6000828152602001908152602001600020548282815181106107c757fe5b60200260200101818152505080600101905061079d565b508091505090565b8060008084815260200190815260200160002060000160008060008681526020019081526020016000206001015481526020019081526020016000208190555060008083815260200190815260200160002060010160008154600101919050819055505050565b60008090505b60066000848152602001908152602001600020600101548110156108b057816006600085815260200190815260200160002060020160008381526020019081526020016000205414156108a5576108b0565b806001019050610853565b600660008481526020019081526020016000206001016000815460019003919050819055505b60066000848152602001908152602001600020600101548110156109555760066000848152602001908152602001600020600201600060018301815260200190815260200160002054600660008581526020019081526020016000206002016000838152602001908152602001600020819055508060010190506108d6565b505050565b80600260008481526020019081526020016000206002019080519060200190610984929190611fea565b505050565b60008190505b60008084815260200190815260200160002060010154811015610a0b5760008084815260200190815260200160002060000160006001830181526020019081526020016000205460008085815260200190815260200160002060000160008381526020019081526020016000208190555080600101905061098f565b506000808381526020019081526020016000206001016000815460019003919050819055505050565b60008090505b600154811015610ab3576000828281518110610a5257fe5b602002602001015114610aa857818181518110610a6b57fe5b6020026020010151600d60008581526020019081526020016000206002016000838152602001908152602001600020600082825403925050819055505b806001019050610a3a565b505050565b606080600154604051908082528060200260200182016040528015610af757816020015b610ae461206a565b815260200190600190039081610adc5790505b50905060008090505b600154811015610ca2576002600082815260200190815260200160002060405180608001604052908160008201548152602001600182018054600181600116156101000203166002900480601f016020809104026020016040519081016040528092919081815260200182805460018160011615610100020316600290048015610bcb5780601f10610ba057610100808354040283529160200191610bcb565b820191906000526020600020905b815481529060010190602001808311610bae57829003601f168201915b50505050508152602001600282018054600181600116156101000203166002900480601f016020809104026020016040519081016040528092919081815260200182805460018160011615610100020316600290048015610c6d5780601f10610c4257610100808354040283529160200191610c6d565b820191906000526020600020905b815481529060010190602001808311610c5057829003601f168201915b50505050508152602001600382015481525050828281518110610c8c57fe5b6020026020010181905250806001019050610b00565b508091505090565b80600260008481526020019081526020016000206001019080519060200190610cd4929190611fea565b505050565b600160116000848152602001908152602001600020600301600083815260200190815260200160002060006101000a81548160ff0219169083151502179055505050565b6000600c54600d6000600c5481526020019081526020016000206000018190555082600d6000600c548152602001908152602001600020600101819055506000600d6000600c54815260200190815260200160002060030160006101000a81548160ff02191690831515021790555060008090505b600154811015610e38576000838281518110610daa57fe5b602002602001015114610e2d57828181518110610dc357fe5b6020026020010151600d6000600c548152602001908152602001600020600201600083815260200190815260200160002081905550828181518110610e0457fe5b6020026020010151600b6000838152602001908152602001600020600082825401925050819055505b806001019050610d92565b50600c600081548092919060010191905055905092915050565b6000600154905090565b610e64612092565b6004600083815260200190815260200160002060405180606001604052908160008201548152602001600182018054600181600116156101000203166002900480601f016020809104026020016040519081016040528092919081815260200182805460018160011615610100020316600290048015610f255780601f10610efa57610100808354040283529160200191610f25565b820191906000526020600020905b815481529060010190602001808311610f0857829003601f168201915b50505050508152602001600282018054600181600116156101000203166002900480601f016020809104026020016040519081016040528092919081815260200182805460018160011615610100020316600290048015610fc75780601f10610f9c57610100808354040283529160200191610fc7565b820191906000526020600020905b815481529060010190602001808311610faa57829003601f168201915b5050505050815250509050919050565b60008090505b60066000848152602001908152602001600020600101548110156110b8578160026000601160006006600089815260200190815260200160002060020160008781526020019081526020016000205481526020019081526020016000206001015481526020019081526020016000206003015410156110ad5760006011600060066000878152602001908152602001600020600201600085815260200190815260200160002054815260200190815260200160002060040160006101000a81548160ff0219169083151502179055505b806001019050610fdd565b505050565b6060806003546040519080825280602002602001820160405280156110fc57816020015b6110e96120b3565b8152602001906001900390816110e15790505b50905060008090505b60035481101561129d576004600082815260200190815260200160002060405180606001604052908160008201548152602001600182018054600181600116156101000203166002900480601f0160208091040260200160405190810160405280929190818152602001828054600181600116156101000203166002900480156111d05780601f106111a5576101008083540402835291602001916111d0565b820191906000526020600020905b8154815290600101906020018083116111b357829003601f168201915b50505050508152602001600282018054600181600116156101000203166002900480601f0160208091040260200160405190810160405280929190818152602001828054600181600116156101000203166002900480156112725780601f1061124757610100808354040283529160200191611272565b820191906000526020600020905b81548152906001019060200180831161125557829003601f168201915b50505050508152505082828151811061128757fe5b6020026020010181905250806001019050611105565b508091505090565b600060405180606001604052806003548152602001848152602001838152506004600060035481526020019081526020016000206000820151816000015560208201518160010190805190602001906112ff9291906120d4565b50604082015181600201908051906020019061131c9291906120d4565b509050506003600081548092919060010191905055905092915050565b611341612154565b611349612154565b8281600001818152505060116000848152602001908152602001600020600101548160200181815250506011600084815260200190815260200160002060040160009054906101000a900460ff168160800190151590811515815250506003546040519080825280602002602001820160405280156113d75781602001602082028038833980820191505090505b5081604001819052506007546040519080825280602002602001820160405280156114115781602001602082028038833980820191505090505b50816060018190525060008090505b60035481101561147957601160008581526020019081526020016000206002016000828152602001908152602001600020548260400151828151811061146257fe5b602002602001018181525050806001019050611420565b5060008090505b6007548110156114ec5760116000858152602001908152602001600020600301600082815260200190815260200160002060009054906101000a900460ff16826060015182815181106114cf57fe5b602002602001019015159081151581525050806001019050611480565b5080915050919050565b6000601054905090565b606080600e5460405190808252806020026020018201604052801561153f57816020015b61152c612185565b8152602001906001900390816115245790505b50905060008090505b600e548110156115b057600f6000828152602001908152602001600020604051806060016040529081600082015481526020016001820154815260200160028201548152505082828151811061159a57fe5b6020026020010181905250806001019050611548565b508091505090565b8060026000848152602001908152602001600020600301819055505050565b6000600354905090565b80600660008481526020019081526020016000206002016000600660008681526020019081526020016000206001016000815480929190600101919050558152602001908152602001600020819055505050565b80600f6000848152602001908152602001600020600101600082825403925050819055505050565b60006040518060c001604052806007548152602001868152602001858152602001600115158152602001848152602001838152506008600060075481526020019081526020016000206000820151816000015560208201518160010190805190602001906116cc9291906120d4565b506040820151816002015560608201518160030160006101000a81548160ff0219169083151502179055506080820151816004015560a082015181600501908051906020019061171d9291906120d4565b5090505060076000815480929190600101919050559050949350505050565b60008060008581526020019081526020016000206001015490505b818111156117bf5760008085815260200190815260200160002060000160006001830381526020019081526020016000205460008086815260200190815260200160002060000160008381526020019081526020016000208190555080600190039050611757565b50816000808581526020019081526020016000206000016000838152602001908152602001600020819055506000808481526020019081526020016000206001016000815460010191905081905550505050565b6060806000808481526020019081526020016000206001015460405190808252806020026020018201604052801561185a5781602001602082028038833980820191505090505b50905060008090505b600080858152602001908152602001600020600101548110156118ca576000808581526020019081526020016000206000016000828152602001908152602001600020548282815181106118b357fe5b602002602001018181525050806001019050611863565b5080915050919050565b6000600b6000838152602001908152602001600020600081546001900391905081905550601054601160006010548152602001908152602001600020600001819055508160116000601054815260200190815260200160002060010181905550600160116000601054815260200190815260200160002060040160006101000a81548160ff02191690831515021790555060106000815480929190600101919050559050919050565b60006040518060600160405280600954815260200184815260200183815250600a600060095481526020019081526020016000206000820151816000015560208201518160010190805190602001906119d79291906120d4565b5060408201518160020190805190602001906119f49291906120d4565b509050506009600081548092919060010191905055905092915050565b8060116000858152602001908152602001600020600201600084815260200190815260200160002081905550505050565b60006040518060600160405280600e54815260200184815260200183815250600f6000600e548152602001908152602001600020600082015181600001556020820151816001015560408201518160020155905050600e600081548092919060010191905055905092915050565b611ab86121a6565b6002600083815260200190815260200160002060405180608001604052908160008201548152602001600182018054600181600116156101000203166002900480601f016020809104026020016040519081016040528092919081815260200182805460018160011615610100020316600290048015611b795780601f10611b4e57610100808354040283529160200191611b79565b820191906000526020600020905b815481529060010190602001808311611b5c57829003601f168201915b50505050508152602001600282018054600181600116156101000203166002900480601f016020809104026020016040519081016040528092919081815260200182805460018160011615610100020316600290048015611c1b5780601f10611bf057610100808354040283529160200191611c1b565b820191906000526020600020905b815481529060010190602001808311611bfe57829003601f168201915b505050505081526020016003820154815250509050919050565b80600460008481526020019081526020016000206001019080519060200190611c5f929190611fea565b505050565b6000600554600660006005548152602001908152602001600020600001819055506000600660006005548152602001908152602001600020600101819055506005600081548092919060010191905055905090565b6000600b6000838152602001908152602001600020549050919050565b611cde6121ce565b611ce66121ce565b82816000018181525050600d600084815260200190815260200160002060010154816020018181525050600154604051908082528060200260200182016040528015611d415781602001602082028038833980820191505090505b508160400181905250600d600084815260200190815260200160002060030160009054906101000a900460ff1681606001901515908115158152505060008090505b600154811015611ddc57600d600085815260200190815260200160002060020160008281526020019081526020016000205482604001518281518110611dc557fe5b602002602001018181525050806001019050611d83565b5080915050919050565b60006040518060800160405280600154815260200185815260200184815260200183815250600260006001548152602001908152602001600020600082015181600001556020820151816001019080519060200190611e469291906120d4565b506040820151816002019080519060200190611e639291906120d4565b50606082015181600301559050506000806000600154815260200190815260200160002060010181905550600160008154809291906001019190505590509392505050565b80600460008481526020019081526020016000206002019080519060200190611ed2929190611fea565b505050565b60006040518060c001604052806007548152602001848152602001838152602001600015158152602001600081526020016040518060400160405280600281526020017f4e41000000000000000000000000000000000000000000000000000000000000815250815250600860006007548152602001908152602001600020600082015181600001556020820151816001019080519060200190611f7c9291906120d4565b506040820151816002015560608201518160030160006101000a81548160ff0219169083151502179055506080820151816004015560a0820151816005019080519060200190611fcd9291906120d4565b509050506007600081548092919060010191905055905092915050565b828054600181600116156101000203166002900490600052602060002090601f016020900481019282601f1061202b57805160ff1916838001178555612059565b82800160010185558215612059579182015b8281111561205857825182559160200191906001019061203d565b5b50905061206691906121f8565b5090565b6040518060800160405280600081526020016060815260200160608152602001600081525090565b60405180606001604052806000815260200160608152602001606081525090565b60405180606001604052806000815260200160608152602001606081525090565b828054600181600116156101000203166002900490600052602060002090601f016020900481019282601f1061211557805160ff1916838001178555612143565b82800160010185558215612143579182015b82811115612142578251825591602001919060010190612127565b5b50905061215091906121f8565b5090565b6040518060a00160405280600081526020016000815260200160608152602001606081526020016000151581525090565b60405180606001604052806000815260200160008152602001600081525090565b6040518060800160405280600081526020016060815260200160608152602001600081525090565b60405180608001604052806000815260200160008152602001606081526020016000151581525090565b61221a91905b808211156122165760008160009055506001016121fe565b5090565b90565b600082601f83011261222e57600080fd5b813561224161223c82612d6b565b612d3e565b9150818183526020840193506020810190508385602084028201111561226657600080fd5b60005b83811015612296578161227c88826122f4565b845260208401935060208301925050600181019050612269565b5050505092915050565b600082601f8301126122b157600080fd5b81356122c46122bf82612d93565b612d3e565b915080825260208301602083018583830111156122e057600080fd5b6122eb838284612f47565b50505092915050565b60008135905061230381612f9a565b92915050565b6000806040838503121561231c57600080fd5b600083013567ffffffffffffffff81111561233657600080fd5b612342858286016122a0565b925050602083013567ffffffffffffffff81111561235f57600080fd5b61236b858286016122a0565b9150509250929050565b60008060006060848603121561238a57600080fd5b600084013567ffffffffffffffff8111156123a457600080fd5b6123b0868287016122a0565b935050602084013567ffffffffffffffff8111156123cd57600080fd5b6123d9868287016122a0565b92505060406123ea868287016122f4565b9150509250925092565b6000806040838503121561240757600080fd5b600083013567ffffffffffffffff81111561242157600080fd5b61242d858286016122a0565b925050602061243e858286016122f4565b9150509250929050565b6000806000806080858703121561245e57600080fd5b600085013567ffffffffffffffff81111561247857600080fd5b612484878288016122a0565b9450506020612495878288016122f4565b93505060406124a6878288016122f4565b925050606085013567ffffffffffffffff8111156124c357600080fd5b6124cf878288016122a0565b91505092959194509250565b6000602082840312156124ed57600080fd5b60006124fb848285016122f4565b91505092915050565b6000806040838503121561251757600080fd5b6000612525858286016122f4565b925050602083013567ffffffffffffffff81111561254257600080fd5b61254e8582860161221d565b9150509250929050565b6000806040838503121561256b57600080fd5b6000612579858286016122f4565b925050602083013567ffffffffffffffff81111561259657600080fd5b6125a2858286016122a0565b9150509250929050565b600080604083850312156125bf57600080fd5b60006125cd858286016122f4565b92505060206125de858286016122f4565b9150509250929050565b6000806000606084860312156125fd57600080fd5b600061260b868287016122f4565b935050602061261c868287016122f4565b925050604061262d868287016122f4565b9150509250925092565b60006126438383612909565b60208301905092915050565b600061265b8383612951565b60608301905092915050565b600061267383836129ea565b905092915050565b60006126878383612aab565b905092915050565b600061269b8383612bf5565b60208301905092915050565b60006126b282612e1f565b6126bc8185612eba565b93506126c783612dbf565b8060005b838110156126f85781516126df8882612637565b97506126ea83612e6c565b9250506001810190506126cb565b5085935050505092915050565b600061271082612e2a565b61271a8185612ecb565b935061272583612dcf565b8060005b8381101561275657815161273d888261264f565b975061274883612e79565b925050600181019050612729565b5085935050505092915050565b600061276e82612e35565b6127788185612edc565b93508360208202850161278a85612ddf565b8060005b858110156127c657848403895281516127a78582612667565b94506127b283612e86565b925060208a0199505060018101905061278e565b50829750879550505050505092915050565b60006127e382612e40565b6127ed8185612eed565b9350836020820285016127ff85612def565b8060005b8581101561283b578484038952815161281c858261267b565b945061282783612e93565b925060208a01995050600181019050612803565b50829750879550505050505092915050565b600061285882612e56565b6128628185612f0f565b935061286d83612e0f565b8060005b8381101561289e578151612885888261268f565b975061289083612ead565b925050600181019050612871565b5085935050505092915050565b60006128b682612e4b565b6128c08185612efe565b93506128cb83612dff565b8060005b838110156128fc5781516128e3888261268f565b97506128ee83612ea0565b9250506001810190506128cf565b5085935050505092915050565b61291281612f31565b82525050565b600061292382612e61565b61292d8185612f20565b935061293d818560208601612f56565b61294681612f89565b840191505092915050565b6060820160008201516129676000850182612bf5565b50602082015161297a6020850182612bf5565b50604082015161298d6040850182612bf5565b50505050565b60006060830160008301516129ab6000860182612bf5565b50602083015184820360208601526129c38282612918565b915050604083015184820360408601526129dd8282612918565b9150508091505092915050565b6000606083016000830151612a026000860182612bf5565b5060208301518482036020860152612a1a8282612918565b91505060408301518482036040860152612a348282612918565b9150508091505092915050565b6000608083016000830151612a596000860182612bf5565b5060208301518482036020860152612a718282612918565b91505060408301518482036040860152612a8b8282612918565b9150506060830151612aa06060860182612bf5565b508091505092915050565b6000608083016000830151612ac36000860182612bf5565b5060208301518482036020860152612adb8282612918565b91505060408301518482036040860152612af58282612918565b9150506060830151612b0a6060860182612bf5565b508091505092915050565b600060a083016000830151612b2d6000860182612bf5565b506020830151612b406020860182612bf5565b5060408301518482036040860152612b5882826128ab565b91505060608301518482036060860152612b7282826126a7565b9150506080830151612b876080860182612909565b508091505092915050565b6000608083016000830151612baa6000860182612bf5565b506020830151612bbd6020860182612bf5565b5060408301518482036040860152612bd582826128ab565b9150506060830151612bea6060860182612909565b508091505092915050565b612bfe81612f3d565b82525050565b612c0d81612f3d565b82525050565b60006020820190508181036000830152612c2d8184612705565b905092915050565b60006020820190508181036000830152612c4f8184612763565b905092915050565b60006020820190508181036000830152612c7181846127d8565b905092915050565b60006020820190508181036000830152612c93818461284d565b905092915050565b60006020820190508181036000830152612cb58184612993565b905092915050565b60006020820190508181036000830152612cd78184612a41565b905092915050565b60006020820190508181036000830152612cf98184612b15565b905092915050565b60006020820190508181036000830152612d1b8184612b92565b905092915050565b6000602082019050612d386000830184612c04565b92915050565b6000604051905081810181811067ffffffffffffffff82111715612d6157600080fd5b8060405250919050565b600067ffffffffffffffff821115612d8257600080fd5b602082029050602081019050919050565b600067ffffffffffffffff821115612daa57600080fd5b601f19601f8301169050602081019050919050565b6000819050602082019050919050565b6000819050602082019050919050565b6000819050602082019050919050565b6000819050602082019050919050565b6000819050602082019050919050565b6000819050602082019050919050565b600081519050919050565b600081519050919050565b600081519050919050565b600081519050919050565b600081519050919050565b600081519050919050565b600081519050919050565b6000602082019050919050565b6000602082019050919050565b6000602082019050919050565b6000602082019050919050565b6000602082019050919050565b6000602082019050919050565b600082825260208201905092915050565b600082825260208201905092915050565b600082825260208201905092915050565b600082825260208201905092915050565b600082825260208201905092915050565b600082825260208201905092915050565b600082825260208201905092915050565b60008115159050919050565b6000819050919050565b82818337600083830152505050565b60005b83811015612f74578082015181840152602081019050612f59565b83811115612f83576000848401525b50505050565b6000601f19601f8301169050919050565b612fa381612f3d565b8114612fae57600080fd5b5056fea365627a7a723158204981d7d529d6c30eb8a354394f2cc199e3e8c32b142ef7c99d60efa840909a136c6578706572696d656e74616cf564736f6c63430005100040",
  "source": "// SPDX-License-Identifier: MIT\r\npragma experimental ABIEncoderV2;\r\npragma solidity >=0.4.22 <0.9.0;\r\n\r\ncontract SmartContract {\r\n\r\n    // ProcessOfProduct\r\n\r\n    struct ProcessOfProduct{\r\n        mapping(uint256 => uint256) processId;\r\n        uint256 processCount; \r\n    }\r\n\r\n    mapping(uint256 => ProcessOfProduct) processOfProducts;\r\n\r\n    function addProcessToProduct(uint256 productId,uint256 processId) public {\r\n        processOfProducts[productId].processId[processOfProducts[productId].processCount] = processId;\r\n        ++processOfProducts[productId].processCount;\r\n    }\r\n\r\n    function addProcessToProductAtIndex(uint256 productId,uint256 processId,uint256 index) public {\r\n        for(uint256 i=processOfProducts[productId].processCount;i>index;--i){\r\n            processOfProducts[productId].processId[i] = processOfProducts[productId].processId[i-1];\r\n        }\r\n        processOfProducts[productId].processId[index] = processId;\r\n        ++processOfProducts[productId].processCount;\r\n    }\r\n\r\n    function removeProcessFromProduct(uint256 productId,uint256 index) public {\r\n        for(uint256 i=index;i<processOfProducts[productId].processCount;++i){\r\n            processOfProducts[productId].processId[i] = processOfProducts[productId].processId[i+1];\r\n        }\r\n        --processOfProducts[productId].processCount;\r\n    }\r\n\r\n    function getProcessOfProducts(uint256 productId) public view returns(uint256[] memory) {\r\n        uint256[] memory memoryArray = new uint256[](processOfProducts[productId].processCount);\r\n        for(uint256 i=0;i<processOfProducts[productId].processCount;++i){\r\n            memoryArray[i] = processOfProducts[productId].processId[i];\r\n        }\r\n        return memoryArray;\r\n    }\r\n\r\n    // Product \r\n    uint256 productCount = 0;\r\n\r\n    struct Product {\r\n        uint256 productId;\r\n        string productName;\r\n        string productDescription;\r\n        uint256 maxTemprature;\r\n    }\r\n\r\n    mapping(uint256 => Product) products;\r\n\r\n    function addProduct(\r\n        string memory productName,\r\n        string memory productDescription,\r\n        uint256 maxTemprature\r\n    ) public returns (uint256) {\r\n        products[productCount] = Product(\r\n            productCount,\r\n            productName,\r\n            productDescription,\r\n            maxTemprature\r\n        );\r\n        processOfProducts[productCount].processCount = 0;\r\n        return productCount++;\r\n    }\r\n\r\n    function updateProductName(\r\n        uint256 productId, \r\n        string memory productName\r\n    ) public {\r\n        products[productId].productName = productName;\r\n    }\r\n\r\n    function updateProductDescription(\r\n        uint256 productId,\r\n        string memory productDescription\r\n    ) public {\r\n        products[productId].productDescription = productDescription;\r\n    }\r\n\r\n    function getNumberOfProducts() public view returns (uint256) {\r\n        return productCount;\r\n    }\r\n\r\n    function updateProductMaxTemprature(\r\n        uint256 productId,\r\n        uint256 maxTemprature\r\n    ) public {\r\n        products[productId].maxTemprature = maxTemprature;\r\n    }\r\n\r\n    function getProductDetails() public view returns (Product[] memory) {\r\n        Product[] memory memoryArray = new Product[](productCount);\r\n        for (uint256 i = 0; i < productCount; ++i) {\r\n            memoryArray[i] = products[i];\r\n        }\r\n        return memoryArray;\r\n    }\r\n\r\n    function getProductDetailsById(uint256 productId) public view returns (Product memory) {\r\n        return products[productId];\r\n    }\r\n\r\n    // Process\r\n\r\n    uint256 processCount = 0;\r\n\r\n    struct Process {\r\n        uint256 processId;\r\n        string processName;\r\n        string processDescription;\r\n    }\r\n\r\n    mapping(uint256 => Process) processes;\r\n\r\n    function addProcess(string memory processName, string memory processDescription) public returns(uint256){\r\n        processes[processCount] = Process(\r\n            processCount,\r\n            processName,\r\n            processDescription\r\n        );\r\n        return processCount++;\r\n    }    \r\n\r\n    function updateProcessName(\r\n        uint256 processId, \r\n        string memory processName\r\n    ) public {\r\n        processes[processId].processName = processName;\r\n    }\r\n\r\n    function updateProcessDescription(\r\n        uint256 processId,\r\n        string memory processDescription\r\n    ) public {\r\n        processes[processId].processDescription = processDescription;\r\n    }\r\n\r\n    function getNumberOfProcesses() public view returns (uint256) {\r\n        return processCount;\r\n    }\r\n\r\n    function getProcessDetails() public view returns (Process[] memory) {\r\n        Process[] memory memoryArray = new Process[](processCount);\r\n        for (uint256 i = 0; i < processCount; ++i) {\r\n            memoryArray[i] = processes[i];\r\n        }\r\n        return memoryArray;\r\n    }\r\n\r\n    function getProcessDetailsById(uint256 processId) public view returns(Process memory) {\r\n        return processes[processId];\r\n    }\r\n\r\n    // Refrigerator\r\n\r\n    uint256 refrigeratorCount = 0;\r\n\r\n    struct Refrigerator {\r\n        uint256 refrigeratorId;\r\n        uint256 itemsCount;\r\n        mapping (uint256 => uint256) items;\r\n    }\r\n\r\n    mapping(uint256 => Refrigerator) refrigerators;\r\n\r\n    function addRefrigerator() public returns(uint256){\r\n        refrigerators[refrigeratorCount].refrigeratorId = refrigeratorCount;\r\n        refrigerators[refrigeratorCount].itemsCount = 0;\r\n        return refrigeratorCount++;\r\n    } \r\n\r\n    function addItemInRefrigerator(\r\n        uint256 refrigeratorId,\r\n        uint256 itemId\r\n    ) public {\r\n        refrigerators[refrigeratorId].items[refrigerators[refrigeratorId].itemsCount++] = itemId;\r\n    }  \r\n\r\n    function remmoveItemFromRefrigerator(uint256 refrigeratorId,uint256 itemId) public {\r\n        uint256 itemIndex = 0;\r\n        for(;itemIndex<refrigerators[refrigeratorId].itemsCount;++itemIndex){\r\n            if(refrigerators[refrigeratorId].items[itemIndex] == itemId){\r\n                break;\r\n            }\r\n        }\r\n        --refrigerators[refrigeratorId].itemsCount;\r\n        for(;itemIndex<refrigerators[refrigeratorId].itemsCount;++itemIndex){\r\n            refrigerators[refrigeratorId].items[itemIndex] = refrigerators[refrigeratorId].items[itemIndex+1];\r\n        }\r\n    }\r\n\r\n    function addTemprature(uint256 refrigeratorId,uint256 temprature) public {\r\n        for(uint256 i=0;i<refrigerators[refrigeratorId].itemsCount;++i){\r\n            if(products[items[refrigerators[refrigeratorId].items[i]].productId].maxTemprature < temprature){\r\n                items[refrigerators[refrigeratorId].items[i]].isUsable = false;\r\n            }\r\n        }\r\n    }\r\n\r\n    // Employee\r\n\r\n    uint256 employeeCount = 0;\r\n\r\n    struct Employee {\r\n        uint256 employeeId;\r\n        string employeeName;\r\n        uint256 contactNumber;\r\n        bool isVaccinated;\r\n        uint256 numberOfDose;\r\n        string vaccineName;\r\n    }\r\n\r\n    mapping(uint256 => Employee) employees;\r\n\r\n    function addEmployee(\r\n        string memory employeeName,\r\n        uint256 contactNumber\r\n    ) public returns(uint256) {\r\n        employees[employeeCount] = Employee(\r\n            employeeCount,\r\n            employeeName,\r\n            contactNumber,\r\n            false,\r\n            0,\r\n            \"NA\"\r\n        );\r\n        return employeeCount++;\r\n    }\r\n\r\n    function addEmployee(\r\n        string memory employeeName,\r\n        uint256 contactNumber,\r\n        uint256 numberOfDose,\r\n        string memory vaccineName\r\n    ) public returns(uint256) {\r\n        employees[employeeCount] = Employee(\r\n            employeeCount,\r\n            employeeName,\r\n            contactNumber,\r\n            true,\r\n            numberOfDose,\r\n            vaccineName\r\n        );\r\n        return employeeCount++;\r\n    }\r\n\r\n    // Retailer\r\n\r\n    uint256 retailerCount = 0;\r\n\r\n    struct Retailer {\r\n        uint256 retailerId;\r\n        string retailerName;\r\n        string retailerAddress;\r\n    }\r\n\r\n    mapping (uint256 => Retailer) retailers;\r\n\r\n    function addRetailer(string memory retailerName,string memory retailerAddress) public returns(uint256) {\r\n        retailers[retailerCount] = Retailer(retailerCount,retailerName,retailerAddress);\r\n        return retailerCount++;\r\n    }\r\n\r\n    // Products to produce\r\n\r\n    mapping(uint256 => uint256) amountOfProductsToProduce;\r\n\r\n    function getAmountOfProductsToProduce() public view returns(uint256[] memory) {\r\n        uint256[] memory memoryArray = new uint256[](productCount);\r\n        for(uint256 i=0;i<productCount;++i){\r\n            memoryArray[i] = amountOfProductsToProduce[i];\r\n        }\r\n        return memoryArray;\r\n    }\r\n\r\n    function getAmountOfProductToProduce(uint256 productId) public view returns(uint256) {\r\n        return amountOfProductsToProduce[productId];\r\n    }\r\n\r\n    // Order\r\n\r\n    uint256 orderCount = 0;\r\n\r\n    struct Order {\r\n        uint256 orderId;\r\n        uint256 retailerId;\r\n        mapping(uint256 => uint256) productAmount;\r\n        bool isDelivered;\r\n    }\r\n\r\n    mapping(uint256 => Order) orders;\r\n\r\n    function placeOrder(uint256 retailerId,uint256[] memory productAmount) public returns(uint256) {\r\n        orders[orderCount].orderId = orderCount;\r\n        orders[orderCount].retailerId = retailerId;\r\n        orders[orderCount].isDelivered = false;\r\n        for(uint256 i=0;i<productCount;++i){\r\n            if(productAmount[i] != 0) {\r\n                orders[orderCount].productAmount[i] = productAmount[i];\r\n                amountOfProductsToProduce[i] += productAmount[i];\r\n            }\r\n        }\r\n        return orderCount++;\r\n    }\r\n\r\n    struct ReturnOrder {\r\n        uint256 orderId;\r\n        uint256 retailerId;\r\n        uint256[] productAmount;\r\n        bool isDelivered;\r\n    }\r\n\r\n    function getOrderDetails(uint256 orderId) public view returns(ReturnOrder memory) {\r\n        ReturnOrder memory memoryReturnOrder;\r\n        memoryReturnOrder.orderId = orderId;\r\n        memoryReturnOrder.retailerId = orders[orderId].retailerId;\r\n        memoryReturnOrder.productAmount = new uint256[](productCount);\r\n        memoryReturnOrder.isDelivered = orders[orderId].isDelivered;\r\n        for(uint256 i=0;i<productCount;++i){\r\n            memoryReturnOrder.productAmount[i] = orders[orderId].productAmount[i];\r\n        }\r\n        return memoryReturnOrder;\r\n    }\r\n\r\n    function updateOrderDetails(uint256 orderId,uint256[] memory productAmount) public {\r\n        for(uint256 i=0;i<productCount;++i){\r\n            if(productAmount[i] != 0) {\r\n                orders[orderId].productAmount[i] -= productAmount[i];\r\n            }\r\n        }\r\n    }\r\n\r\n    // Milk\r\n\r\n    uint256 milkCount = 0;\r\n\r\n    struct Milk {\r\n        uint256 milkId;\r\n        uint256 milkAmount;\r\n        uint256 timestamp;\r\n    }\r\n\r\n    mapping (uint256 => Milk) milks;\r\n\r\n    function addMilk(uint256 milkAmount, uint256 timestamp) public returns(uint256) {\r\n        milks[milkCount] = Milk(\r\n            milkCount,\r\n            milkAmount,\r\n            timestamp\r\n        );\r\n        return milkCount++;\r\n    }\r\n\r\n    function reduceMilk(uint256 milkId, uint256 milkAmount) public {\r\n        milks[milkId].milkAmount -= milkAmount;\r\n    }\r\n\r\n    function getAmountOfMilks() public view returns(Milk[] memory) {\r\n        Milk[] memory memoryArray = new Milk[](milkCount);\r\n        for(uint256 i=0;i<milkCount;++i){\r\n            memoryArray[i] = milks[i];\r\n        }\r\n        return memoryArray;\r\n    }\r\n\r\n    // Item\r\n    \r\n    uint256 itemCount = 0;\r\n    \r\n    struct Item {\r\n        uint256 itemId;\r\n        uint256 productId;\r\n        mapping (uint256 => uint256) processTimestamp;\r\n        mapping (uint256 => bool) employeeWorked;\r\n        bool isUsable;\r\n    }\r\n\r\n    struct ReturnItem {\r\n        uint256 itemId;\r\n        uint256 productId;\r\n        uint256[] processTimestamp;\r\n        bool[] employeeWorked;\r\n        bool isUsable;\r\n    }\r\n\r\n    mapping(uint256 => Item) items;\r\n\r\n    function addItem(uint256 productId) public returns(uint256){\r\n        --amountOfProductsToProduce[productId];\r\n        items[itemCount].itemId = itemCount;\r\n        items[itemCount].productId = productId;\r\n        items[itemCount].isUsable = true;\r\n        return itemCount++;\r\n    }\r\n\r\n    function addEmployeeToItem(uint256 itemId,uint256 employeeId) public {\r\n        items[itemId].employeeWorked[employeeId] = true;\r\n    }\r\n\r\n    function addProcessToItem(uint256 itemId,uint256 processId,uint256 timestamp) public {\r\n        items[itemId].processTimestamp[processId] = timestamp;\r\n    }\r\n\r\n    function getItemDetails(uint256 itemId) public view returns(ReturnItem memory){\r\n        ReturnItem memory memoryReturnItem;\r\n        memoryReturnItem.itemId = itemId;\r\n        memoryReturnItem.productId = items[itemId].productId;\r\n        memoryReturnItem.isUsable = items[itemId].isUsable;\r\n        memoryReturnItem.processTimestamp = new uint256[](processCount);\r\n        memoryReturnItem.employeeWorked = new bool[](employeeCount);\r\n        for(uint256 i=0;i<processCount;++i){\r\n            memoryReturnItem.processTimestamp[i] = items[itemId].processTimestamp[i];\r\n        }\r\n        for(uint256 i=0;i<employeeCount;++i){\r\n            memoryReturnItem.employeeWorked[i] = items[itemId].employeeWorked[i];\r\n        }\r\n        return memoryReturnItem;\r\n    }\r\n\r\n    function getNumberOfItems() public view returns(uint256) {\r\n        return itemCount;\r\n    }\r\n\r\n}\r\n",
  "sourcePath": "D:\\milkfactory\\contracts\\SmartContract.sol",
  "compiler": {
    "name": "solc",
    "version": "0.5.16+commit.9c3226ce.Emscripten.clang"
  },
  "schemaVersion": "3.4.3",
  "updatedAt": "2021-11-30T13:22:04.122Z",
  "networkType": "ethereum",
  "devdoc": {
    "methods": {}
  },
  "userdoc": {
    "methods": {}
  }
}